:020000040800F2
:10000000B8060020D5000008FD140008ED13000814
:1000100000000000000000000000000000000000E0
:10002000000000000000000000000000471500086C
:1000300000000000000000004515000849150008F8
:10004000E7000008E7000008E7000008E7000008F4
:10005000E7000008E7000008E7000008E7000008E4
:10006000E7000008E7000008E7000008E7000008D4
:10007000E7000008E7000008E7000008E7000008C4
:10008000E7000008E7000008E700000800000000A3
:10009000E7000008E7000008E7000008E7000008A4
:1000A000E7000008E7000008E7000008AD1B0008B3
:1000B000E7000008E700000800000000E700000873
:1000C0000348854600F08CFA00480047F1210008FB
:1000D000B80600200448804704480047FEE7FEE7D2
:1000E000FEE7FEE7FEE7FEE7F1150008C1000008A5
:1000F00030B50B46014600202022012409E00D46C0
:10010000D5409D4205D31D469540491B2546954047
:1001100040191546521E002DF1DC30BDF0B51FB45C
:100120000646002082B005464024019100901BE065
:10013000019922460F46304600F020F8049A059BAC
:10014000801A994110D310461946224600F0C6F98C
:10015000361A8F410197224601200021009F00F0AE
:10016000BDF938184D4100902046641E0028DFDCA0
:10017000019B00982946324607B0F0BD10B5202AF1
:1001800004DB0846203AD040002110BD0B46D34086
:10019000D0402024A21A91400843194610BD0346BE
:1001A0000B439B0703D009E008C9121F08C0042AAB
:1001B000FAD203E00B780370401C491C521EF9D29E
:1001C0007047D2B201E00270401C491EFBD270475A
:1001D0000022F6E710B513460A4604461946FFF713
:1001E000F0FF204610BD0000F0B507460846584015
:1001F00087B0C00F049048000E46590040084908D7
:10020000BC1A884105D2384631461E4617460B4671
:1002100002465800400810434CD0300D0390400572
:100220005900400D490D0590401A0290402872DA9D
:1002300018030121000B090508430190049800925E
:10024000002805D001995242002088410092019077
:10025000029840210A1A0199009800F03FF90546DA
:100260000C466B4607CB00F049F9C0197141039A5F
:100270000E0D0023D71756401A467A40164344D035
:10028000049A002A2DD0029A012A039A15DC12053D
:10029000C01A914101263605001C7141D20F059EFE
:1002A000D2070093019202962A46234600F046F9AF
:1002B00007B0F0BD38463146FAE71605224A0F4628
:1002C000B218C01AB74101210905001C4F4100189E
:1002D0007F41114618187941E20F10436D196441AE
:1002E00013E0E2076D0815436408C2071443039A3C
:1002F00001261205C01A91413605001C7141CE0736
:10030000400830434908C01851412A46234600F0AE
:1003100008F9CDE7FFE7049801224000C117121A3F
:1003200000238B4104983146C417381AA141EEE7E7
:1003300030B40124E407634030BC55E730B40124F5
:10034000E407614030BC4FE70000E0FFF0B50C4629
:100350005C4085B0E40FE40703944C000026640879
:1003600059009446490802460296224321D062462B
:100370000A431ED06200570D4A000E032303550D99
:10038000012402462C492405781B1B0B360B401810
:1003900023432643614600901C46501AB44103D3C0
:1003A0000098401C009002E0921800985B410028E1
:1003B00003DA0020014605B0F0BD00200121090547
:1003C0000746864611E064461D46141BB54106D318
:1003D0006546521BB341744607430C43A646CD07FE
:1003E00040084908284392185B4105460D43EAD16D
:1003F0001046184313D060461946504071400843D8
:1004000006D06046101AB34106D20122002306E04E
:1004100000220123DB0702E00122D243531000989F
:1004200074460105381C6141029C039D0019694115
:1004300000F077F8BFE70000FD03000070B54B0047
:100440005B0803430BD04B005C0D0026334665422E
:10045000B341D417AD1AA34102DB0020014670BDA1
:1004600012053018514170BD0EB5054902910021A9
:1004700000910A460B46019100F060F803B000BD00
:10048000330400000EB5054A029200220092134682
:10049000019200F053F803B000BD000033040000E7
:1004A0004A0009030123090B1B051943094B10B529
:1004B000520D9A4201DA002010BD064B34339A42A5
:1004C00003DC9A1AFFF75AFE10BD03495118884001
:1004D00010BD0000FF030000CDFBFFFF10B5202A78
:1004E00004DB0146203A9140002010BD91402023BA
:1004F0009C1A0346E3401943904010BD10B5202AD2
:1005000006DBCB170846203A1041C1170B4306E023
:100510000B461341D0402024A21A914008431946AB
:1005200010BD10B5002B08DA0024401C6141921860
:100530005B411A4301D14008400010BDF0B51FB423
:1005400082B005460C0003D0084601F067FB02E0CC
:1005500001F064FB20300246009021462846FFF758
:10056000BDFF049B059A04460F46184311430843F8
:1005700014D0184610431BD0009840210A1A184680
:100580000599FFF7FBFD05460E46009A059904986C
:10059000FFF7A4FF084305D0012004E020463946B8
:1005A00007B0F0BD0020C11705430E432C4337436D
:1005B00000990E986305401A7905E40A00220C435D
:1005C000FD0A0A3002D500200146E9E701051019AD
:1005D00069410C9C0D9D00196941FFF7A2FFDFE7FF
:1005E000064C0125064E05E0E36807CC2B430C3C86
:1005F00098471034B442F7D3FFF766FD9022000805
:10060000B0220008FEE731B500F0D0F8044600F053
:10061000CDF80099001B8842F9D338BDF8B5002306
:100620000124A7E027469F403A4070D04D68022D34
:1006300001D0122D14D1DD08AD002D1800952D6AC2
:100640005E07AC46F50E0F26AE46AE406546B54396
:10065000AC460E697546AE4065462E43009D2E623F
:100660004D68012D05D0022D03D0112D01D0122D82
:1006700016D185680326AC465D00AE46AE406546A1
:10068000B543AC46CE687546AE4065462E4386609F
:1006900046680D79BE43ED06ED0F9D40354345603C
:1006A00006685F000325BD40AE46AE430D79B446F3
:1006B000AE07B60FBE4065462E430660C668754657
:1006C000AE438D68BD403543C5604D68ED0050D5E3
:1006D0002B4D6E6B26436E639E082A4DB60075192E
:1006E000AC46AD689E07360F0F27B740BD430527C0
:1006F0003F07B84201D100271AE0234FB84201D189
:10070000012715E0214FB84202D1022710E030E066
:100710001F4FB84201D103270AE01E4FB84201D152
:10072000042705E01C4FB84201D1052700E0062749
:10073000B7402F436546AF60184D2E684F6896430B
:10074000FF0300D516432E606E684F689643BF03C3
:1007500000D516436E60AE684F689643FF0200D521
:100760001643AE60EE684F689643BF0200D516434D
:10077000EE605B1C0A681546DD4000D052E7F8BD0C
:10078000001002400000014000040050000800502A
:10079000000C005000100050001C005000040140EC
:1007A000002A01D08161704781627047014800686A
:1007B000704700000C00002002480168491C0160DD
:1007C000704700000C00002010B506480168402268
:1007D00011430160002000F007F800F019F8002034
:1007E00010BD00000020024010B5044607487D21DE
:1007F000C9000068FFF77CFC00F034FC00222146B1
:10080000501E00F027F8002010BD00000800002056
:1008100010B50A48416B0122114341630022114681
:10082000501F00F017F800221146901E00F012F839
:1008300000221146501E00F00DF810BD00100240BD
:10084000C106C90E012088400149086070470000B8
:1008500000E100E010B500F053FE10BDF8B504460D
:100860000078584D800660D5564E403E31680327CB
:10087000A0693F05024639403A40914208D08003C2
:10088000800F032804D13068800301D50120F8BD12
:10089000B06B012109070843B0634B48016882151A
:1008A00011430160FFF782FF009005E0FFF77EFF34
:1008B0000099401A642823D843480068C005F5D53C
:1008C000286903210904A26908400A4090422CD0FB
:1008D00028692A6988430121C9040A432A612A69CF
:1008E0008A432A61286180050FD5FFF75FFF0090DA
:1008F00008E0FFF75BFF0099411A3448814201D9B3
:100900000320F8BD28698005F3D5A0698103890F0C
:10091000032950D03068B8433060296903200004AF
:10092000A26981430240114329612078C00705D0A4
:10093000E8686168800880000843E86020788007E4
:1009400005D5E8680C218843A1680843E860207851
:10095000400706D5E868032189028843E168084317
:10096000E8602078000706D5E8680321090388437A
:1009700021690843E8602088C00506D5E86803219E
:100980000904884361690843E8602078400606D579
:10099000E868012189068843E1690843E860207816
:1009A000000606D5E868032189048843216A0843C4
:1009B000E8600020F8BD31683840B9430143316038
:1009C000ABE70000401002400070004088130000B8
:1009D000F8B5054653480E460068C007C00FB04240
:1009E0000AD2504801684908490031430160006853
:1009F000C007C00FB0426FD128784B4C800705D597
:100A0000E068F0218843A9680843E0602878C007BF
:100A100052D06868022817D0002818D0216803280F
:100A200018D04907002957DAE1688908890001438D
:100A3000E160FFF7BBFE69680746022912D003296F
:100A40001CD0002926D032E021688903EAE721681A
:100A50008905E7E78901E5E7FFF7A8FEC11B3348F1
:100A6000814222D8E0680007800F0228F4D123E0F9
:100A7000FFF79CFEC11B2D48814216D8E068000795
:100A8000800F0328F4D117E0FFF790FEC11B274821
:100A900081420AD8E0680007800FF5D10CE0FFF72B
:100AA00085FEC11B2148814201D90320F8BDE068C1
:100AB0000007800F0128F2D11A480168C907C90F41
:100AC000B1420BD301684908490031430160006815
:100AD000C007C00FB04201D00120F8BD2878400700
:100AE00006D5E068072109028843E9680843E06009
:100AF0002878000707D5E0680721C90288432969DB
:100B0000C9000843E06000F03DF8E168084A0906C2
:100B1000090F515CC840074908600020FFF764FED8
:100B20000020F8BD002002400010024088130000A1
:100B30006E2200080800002001480068704700008D
:100B400008000020044805490068C968044A4905AE
:100B5000490F515CC8407047080000200010024057
:100B600087220008044805490068C968044A8904C6
:100B7000490F515CC8407047080000200010024037
:100B80008722000810B51A4A5068D3680004410F44
:100B90000C200340174805D0042B06D0082B0BD09F
:100BA0000C2B0BD0491C884010BD1068C00601D525
:100BB000114810BD114810BD114810BDD068D16852
:100BC0008002104B000F185C0902D368890F0124C2
:100BD0002404491C234204D11268D20603D5064AD4
:100BE00002E0074A00E0054A5043FFF781FA10BDD2
:100BF000001002400080000000093D000024F400C5
:100C000000127A007E220008FEB504460078FA4DF4
:100C1000C0074DD0E8680007800F022807D0E868B9
:100C20000007800F032809D1E868C00306D52868AB
:100C300080033DD56068002875D039E001206268E6
:100C40000004824203D129680143296014E005238E
:100C500001211B0489049A422A6805D182432A6033
:100C60002A680A432A60EEE782432A602A68024023
:100C70000092286888432860606800280CD0FFF73D
:100C800095FD064604E0FFF791FD801B64287DD8A2
:100C900028688003F7D50BE0FFF788FD064604E0DF
:100CA000FFF784FD801B6428F1D828688003F7D4FF
:100CB0002078800740D5E8681F270007800F3F0293
:100CC000012807D0E8680007800F032809D1E868E9
:100CD000C00306D42868400717D5E068012822D150
:100CE00013E0E1680920002916D02A6882430A43EC
:100CF0002A60FFF75BFD064604E0FFF757FD801B07
:100D00000228C4D828684007F7D568682169B84325
:100D10000902084368600FE0296881432960FFF7F2
:100D200045FD064605E09DE0FFF740FD801B0228DB
:100D3000ADD828684007F7D42078B04FC00656D504
:100D4000E8680007800F09D0E0690028286840D0D3
:100D500038432860FFF72AFD064628E0286880050A
:100D600002D5E06900287DD06868072149038843DF
:100D7000616A084368606868218C0002000A0906FD
:100D800008436860FFF7FEFEE96800E0E7E0090657
:100D90009B4A090F515CC8409A4908600020FFF740
:100DA00023FD24E0FFF702FD801B0228A9D8286854
:100DB0008005F7D56868072149038843616A0843BD
:100DC00068606868218C0002000A090608436860B0
:100DD0000DE0B8432860FFF7E9FC064604E0FFF7A2
:100DE000E5FC801B02288CD828688005F7D4207881
:100DF000854E000724D560690028306910D0012194
:100E000008433061FFF7D2FC009005E0FFF7CEFC0D
:100E10000099401A02288BD830698007F6D50FE078
:100E2000400840003061FFF7C1FC009005E0FFF78B
:100E3000BDFC0099401A0228B8D830698007F6D462
:100E40002078800632D57148A1694314002919D051
:100E5000AA6801210A43AA606A6B0A436A63016AAD
:100E6000194300E0EDE00162FFF7A0FC009005E00F
:100E7000FFF79CFC0099401A022870D8A8688007E8
:100E8000F6D513E0A96849084900A960016A9943A9
:100E90000162FFF78BFC009005E0FFF787FC0099EB
:100EA000401A02285BD8A8688007F6D4207840074B
:100EB0006FD5002002900190A86BC00006D4A86BEB
:100EC000012109070843A8630120029050480068E7
:100ED000C00513D44E4801683943016001200190D8
:100EE000FFF764FC009005E0FFF760FC0099401AF2
:100EF000642834D846480068C005F5D5A068B842D3
:100F000002D1306938430CE001218902002803D066
:100F10000522120290420CD03069B843306130692A
:100F200088433061A068002815D0FFF73FFC00908F
:100F30000DE03069B8433061306908433061E0E763
:100F4000FFF734FC0099411A3248814272D8306967
:100F50008005F5D50EE0FFF729FC009007E069E079
:100F6000FFF724FC0099411A2A48814262D830696F
:100F70008005F5D40198002803D025480168B943BD
:100F800001600298002804D0A96B0120000781436A
:100F9000A963A06A002852D0E9680907890F0329CC
:100FA0004FD0012636060228286805D0B0432860B5
:100FB000FFF7FCFB04463FE0B0432860FFF7F6FB79
:100FC000074604E0FFF7F2FBC01B022832D828686E
:100FD0008001F7D4616B206BEA680843E16AFD2366
:100FE0001B049A4311430843E86028683043286093
:100FF000FFF7DCFB044614E0001002400001000093
:101000006E2200080800002040100240000001404D
:101010000070004088130000FFF7C8FB001B022887
:1010200008D828688001F7D509E0FFF7BFFB001B4F
:10103000022801D90320FEBD28688001F5D40020D4
:10104000FEBD0120FEBD00000422044904280869F9
:1010500002D09043086170471043FBE700E000E0D6
:1010600070470000094910B5401E884201D901208F
:1010700010BD074C60610321081F00F041FA0020F9
:10108000A06107202061002010BD0000FFFFFF00CD
:1010900000E000E010B5FFF7E3FF10BD70477047B8
:1010A00001466031487A897A0843704770B5044632
:1010B0000068C1692646C90720256036002909D085
:1010C0000168C90506D501210162E06E0843E066AA
:1010D0007572B5722068C16904228B070221002B4A
:1010E00008DA8368DB0705D00162E06E1043E06632
:1010F0007572B5722068C3695B0708D58368DB0722
:1011000005D00262E06E0843E0667572B572206831
:10111000C169090709D58168C90706D0082101629C
:10112000E06E0843E0667572B572E06E002804D088
:101130007572B5722046FFF7B2FF2068C169C90217
:101140000AD58168490207D5012109050162757236
:10115000B5722046FFF7A2FF2068C169890605D550
:101160000068800602D5204600F0FEFA2068C169BA
:10117000090605D50068000602D5204600F08AFC65
:101180002168C86940060AD50868400607D508687E
:101190004022904308607572204600F025F970BD2A
:1011A00070B5040005D025466035687A002802D065
:1011B00006E0012070BD00202872204600F024F8CF
:1011C00024206872206801684908490001602046AF
:1011D00000F010FB606A002802D0204600F032FACE
:1011E000206841680922D2029143416020688168E9
:1011F0002A22914381602068016801221143016025
:10120000204600F085FA70BD00B500680D4985B034
:10121000884215D10C48416B01229203114341636E
:101220000320400200900220019001200290032040
:10123000039004200490052069460007FFF7EEF9AB
:1012400005B000BD003801400010024070B50346F3
:1012500060339C7A202C43D1002914D0002A12D06C
:101260001C7A012C3CD001241C724165014640319E
:101270000A834A8382682603FF25B24207D10269A6
:10128000002A02D02AE0012070BD164A0AE07F261B
:10129000002A1ED001252D07AA4204D10269002A86
:1012A0001AD03F228A830022C266222199720168E5
:1012B0000D68FF26013635430D6001688D682543B2
:1012C0008D601A72006801682022114301600020BD
:1012D00070BD0269002A01D08E83E4E78D83E2E7C6
:1012E000022070BDFF01000010B50068134988425C
:1012F00023D1134C13482289A17A11542089401C10
:101300002081FFF753FA0F490E4A091F0860012197
:1013100021732089921E825C0D2A07D1094A521E30
:10132000825C0A2A02D12173801E2081812180B231
:101330008900884201D30020208110BD003801407F
:101340001402002018000020FFB50646044660364F
:10135000707A81B00D46202844D1002D1AD0002A81
:1013600018D0307A01283DD0012030720020E0668C
:1013700021207072274640373A827A82788A00228A
:10138000401E788280212046049B00F0B6FB002896
:101390001AD102E0012005B0F0BD0120A1680003D0
:1013A000814202D12069002810D021682878886203
:1013B0006D1C788A0028E1D1002240212046049B40
:1013C00000F09BFB002808D00320E4E72888216870
:1013D000C005C00D8862AD1CEBE7202070720020B4
:1013E0003072D8E70220D6E770470000034B47224F
:1013F00003A109A000F002FCFEE700005C22000847
:101400002E2E2F5372632F73746D33326C307878B5
:101410005F69742E6300000025732C206C696E6573
:101420003A2025642025735F4572726F720D0A00A1
:10143000F0B51B4887B0C26A80210A43C262C26A03
:101440000A400592C16A01242143C162C16A214058
:101450000591C26A02210A43C262C06A0526084099
:1014600036070590002210213046FFF799F90D4FFD
:10147000002201213846FFF793F910200025694624
:1014800031C1694630460395FFF7C8F800940295CC
:101490006946384603950194FFF7C0F807B0F0BDE0
:1014A000001002400004005010B5134811490160BB
:1014B000E1214902416000218160C16001618161D7
:1014C000C1610C22016242614162FFF769FE00289E
:1014D00001D0FFF797F8002202211B20FFF7BAF98D
:1014E0001B20FFF7ADF904490122891F881DFFF772
:1014F000ADFE10BD003801402402002070470000FE
:101500008307FF22DB0E9A408907090E99400028C5
:101510000BDA0007000F0838830808489B001818EA
:10152000C36993430B43C3617047830804489B001E
:101530001B181868904308431860704700ED00E0DE
:1015400000E400E07047704710B5FFF735F9FFF78A
:10155000A1FD10BD30B524489DB0816B020411433C
:101560008163224801680322D2029143C214891880
:101570000160500101900B900320022180040C9027
:101580000125480500950D900A916846FFF73CFB40
:10159000002800D0FEE70F200E90002403200F90BB
:1015A00010941194012112940EA8FFF711FA00284B
:1015B00000D0FEE713A813951494FFF74FF9002805
:1015C00000D0FEE7FFF7B8FA7D21C900FEF790FDD5
:1015D000FFF748FD0420FFF737FD00221146501E9B
:1015E000FFF738F91DB030BD001002400070004018
:1015F00010480168821511430160C1680E4A11400C
:10160000C16001680D4A11400160816849084900C4
:10161000816001680122920491430160C168FD224A
:1016200012049143C160002101610549C003886033
:1016300070470000001002400C40FF88F6FFF6FEE5
:1016400000ED00E010B5818CC90707D001684A6839
:1016500001235B049A43836A1A434A60818C890799
:1016600007D501684A6801231B049A43C36A1A43D9
:101670004A60818C490707D501684A6801239B04A9
:101680009A43036B1A434A60818C090707D50168A6
:101690004A680123DB039A43436B1A434A60818CF7
:1016A000C90607D50268916801231B039943836B20
:1016B00019439160818C890607D501688A680123E6
:1016C0005B039A43C36B1A438A60818C490612D527
:1016D00003685A6801210905046C8A4322435A6051
:1016E000026C8A4207D10268516803235B05994363
:1016F000436C19435160818C090607D501684A681B
:101700000123DB04806C9A4302434A6010BD000051
:1017100070B5044600680068124D000708D5012125
:101720002B4600224905204600F0E7F900280CD19D
:101730002068006840070AD501212B460022890550
:10174000204600F0DAF9002801D0032070BD002106
:10175000204660300172E1662021417281720020D2
:1017600070BD0000F055000070B5024640320146E1
:101770006031938B8D7A0C460168222D05D08869E3
:10178000082210438861022070BD01268568360357
:10179000B54202D10569002D0CD04D6A416D1D4046
:1017A0004B1C43650D70518B491E0904090C518374
:1017B00008D01CE0456D496A19402980416D891C9B
:1017C0004165F0E70168CA699206FCD40B682022E3
:1017D00093430B6001680B68D500AB430B60016855
:1017E0008B685B085B008B60A272FFF77DFD0020B9
:1017F00070BD0000F8B504462669A368E769334365
:10180000666900203E4325683343964A2E680146A8
:10181000954F3E401E432E6025686B6803263603B5
:10182000B343E66833436B602568A369954201D0F2
:10183000266A3343AE680B273F02BE431E43AE60A9
:101840008A4E25688A4BB5420CD1DB689B079B0FFB
:1018500006D0012B42D0022B3ED0032B20D11EE01C
:1018600001201DE0834EB5420AD1DB680C263340CF
:1018700016D0042B32D0082B2ED00C2B10D10EE01A
:1018800095420DD1DE6803239B021E4008D0012340
:101890009B02F61A22D0F61A1ED09E4200D10820D2
:1018A000734F403F95427DD10026002818D0022872
:1018B00032D0042858D0082855D164682046FEF755
:1018C000D3FD07460091F107600808437108FEF751
:1018D000D9FD0022684B3DE00220E1E70420DFE76C
:1018E00067683846FEF7C0FD05460091F1077808A5
:1018F00008437108FEF7C6FD06460F46FFF722F9BA
:10190000FEF7B2FD0822FEF799FD32463B46FEF790
:101910006BFC2A46009B42E038686468C00620469B
:101920000CD5FEF7A1FD07460091F10760080843BA
:101930007108FEF7A7FD0022504B0BE0FEF794FD67
:1019400007460091F107600808437108FEF79AFD09
:1019500000224B4BFEF748FC3A46009BFEF7F6FC94
:10196000FEF79EFDE860F8BD67683846FEF77CFD2F
:1019700005460091F107780808437108FEF782FDDB
:1019800006460F46FFF7FEF8FEF76EFD0822FEF74B
:1019900055FD32463B46FEF727FC2A46009BFEF7E4
:1019A000D5FC00E004E0FEF77BFD2168C860F8BDCF
:1019B0000122E369D20393422CD1030000F045F9E0
:1019C0000906090C191F191919251900FFF7BAF88A
:1019D00017E0FFF7C7F814E038686168C00602D561
:1019E0004808284A01E0284A48088018FEF780FB8A
:1019F00081B20A0912010807400F1043D5E7FFF72B
:101A0000C1F8616840004A08EFE7616801224808B0
:101A10001204EAE7030000F018F909070A0D061A94
:101A2000060606220600C2E7FFF78CF811E0FFF772
:101A300099F80EE038686168C00602D54808134A74
:101A400001E0134A48088018FEF752FB8AE7FFF7C7
:101A500099F861684A088018FEF74AFBA5E76168B3
:101A60004808F0E700480040F369FFEF0038014004
:101A70004010024000440040000060418084CE419C
:101A80008084EE4100127A000048E80100093D0020
:101A90000024F4006921095C212901D0022070474B
:101AA00002464032518A002912D0012381681B036B
:101AB000994202D10169002915D0C16C4B1CC36445
:101AC000006809788162508A401E50820020704769
:101AD00001680A6880239A430A600068016840220E
:101AE00011430160F2E7C16C03680988C905C90D9B
:101AF0009962C16C891CC164E5E7F8B51E461546BC
:101B00000F460446FEF752FE2946254660350090F2
:101B100000291AD043E0701C17D0002E05D0FEF724
:101B200045FE0099401AB0420FD920680268802112
:101B30008A43026021680A68202082430A60216883
:101B40000B68C20093430B601EE02068C1693846F1
:101B50008843E0D128E0701C21D0002E05D0FEF78C
:101B600025FE0099401AB04219D9206801688022E8
:101B70009143016021680A68202082430A6021683D
:101B80000A68C3009A430A6021688A6852085200B2
:101B90008A606872A872002028720320F8BD20684D
:101BA000C16938468843D6D00020F8BD70B51148C9
:101BB000FFF77CFAFEF7FAFD044604E0FEF7F6FDB7
:101BC000001B142804D80B48FFF76AFA2028F5D127
:101BD000FEF7ECFD0446084D04E0FEF7E7FD001BB0
:101BE000142806D8012229460248FFF72FFB0028B7
:101BF000F3D170BD240200201E0200200FB410B5E6
:101C000003A9044B044A029800F03CF810BC08BC3D
:101C100004B01847D5210008100000202021020C34
:101C200001D010211046020A01D0104608390209DD
:101C300001D01046091F820801D01046891E4208B3
:101C400001D0881E7047081A704730B47446641E6D
:101C50002578641CAB4200D21D46635D5B00E3182F
:101C600030BC184702E008C8121F08C1002AFAD188
:101C700070477047002001E001C1121F002AFBD10C
:101C800070470000FFB591B00F460546002606E0FC
:101C900025280AD0149A139990476D1C761C287831
:101CA0000028F5D1304615B0F0BD00240094012184
:101CB000F34A029400E004436D1C2B780846203B55
:101CC00098401042F7D128782A280ED0022128788F
:101CD0000246303A092A15D8009A0A235A43303A64
:101CE00080180C436D1C0090F1E701CF0090002894
:101CF00005DA01204003044300984042009002208E
:101D000004436D1C28782E2815D1042004436878DC
:101D10006D1C2A280AD101CF6D1C02900BE002999C
:101D20000A225143303940186D1C02902878014630
:101D300030390929F3D928786C2810D006DC4C28D2
:101D40001AD068280ED06A2817D104E0742813D05E
:101D50007A2812D110E00120400504430CE0012153
:101D6000090501E0032109050C436978814203D18B
:101D70000120000524186D1C6D1C287803906E2826
:101D80001ED00CDC632831D004DC00288AD058280F
:101D900011D1B2E064287BD069280CD178E0732897
:101DA0002DD004DC6F2870D0702804D1A7E07528EE
:101DB0006CD078286BD0149A13999047761C62E007
:101DC0006002400F022807D003280AD00428386890
:101DD0000AD006603F1D56E03868F1170660416082
:101DE000F8E738680680F5E70670F3E73878694663
:101DF00008740020487404A80390012003E03868A8
:101E000003900020C0433F1D61070FD5002101E072
:101E10000199491C029A0191914213DA8142F7DB40
:101E2000019A0399895C0029F2D10BE0002101E0BD
:101E30000199491C01918142FADB019A0399895C5D
:101E40000029F5D101990098139A401A0090214673
:101E5000149B00F03BF901998019461807E003989C
:101E600003990078491C0391149A1399904701989B
:101E7000401E0190401CF2D12146149B139A0098F9
:101E800000F014F986196D1C09E741E033E034E0F5
:101E90000A200021049005916002410F022905D01B
:101EA00001CFC2179446032905D007E0FF1DFF08A4
:101EB000FF0003CF06E000B2C2179446042902D106
:101EC00040B2C1178C4600226146944506DA0A46A4
:101ED0000021404291418C462D2102E0210504D58C
:101EE0002B216A461176012103E0E10701D0202170
:101EF000F7E7019154E00A200BE0102009E01020E0
:101F0000049000210420044308200591029003E07E
:101F100008200021059104906002410F022905D09C
:101F200001CF00229446032906D006E0FF1DFF08DA
:101F3000FF0003CF8C4603E080B2042900D1C0B279
:101F40000021019121072BD50399702906D0049A0D
:101F50001021059B4A401A4305D00EE040216A46F5
:101F60001176012108E06146014306D030216A461E
:101F700011760399517602210191049A0821059B5B
:101F80004A401A430CD16146014301D1610707D58C
:101F900030216A461176012101910299491E029170
:101FA0000399582904D037A103910FA90F910DE08F
:101FB00039A1F9E76146059B049AFEF7AFF8039B48
:101FC0008C469B5C0F9A521E0F9213706146014320
:101FD000F0D10F9807A9081A20300390600704D5A4
:101FE000012000048443029801E00120029003993B
:101FF000884201DD401A00E000204118029001985B
:1020000009180098401A0090E00306D42146149B5A
:10201000139A009800F05AF886190020049008E0FE
:1020200006A9085C149A139990470498401C761CE2
:10203000049001998842F3DBE0030CD52146149B00
:10204000139A009800F042F8861904E0149A3020A0
:1020500013999047761C0299481E02900029F5DCDE
:1020600008E00F980F990078491C0F91149A139962
:102070009047761C0399481E03900029F1DCFBE68B
:10208000092801003031323334353637383961624E
:102090006364656600000000303132333435363712
:1020A000383941424344454600000000F8B5044633
:1020B00000251E461746880404D405E03946202032
:1020C000B0476D1C641EF9D52846F8BDFFB504461F
:1020D000002581B01E46C80301D5302700E0202727
:1020E000880404D505E038460399B0476D1C641E8A
:1020F000F9D5284605B0F0BDF1B5194C0027207B75
:1021000000282BD0FEF752FB164E3168401A1428D7
:1021100024D9002020732289311D0098FEF73FF852
:10212000FF22277A3C3210A117A0009BFFF766FD23
:10213000002506E00098415D1EA0FFF75FFD6D1CC5
:10214000EDB22089A842F5D81CA0FFF757FD2189E0
:10215000301D891CFEF73CF8002020813846F8BD70
:1021600014020020140000202E2E5C436F6E736F4B
:102170006C655F636F6D6D616E64735C636F6E73CE
:102180006F6C652E630000000D0A25732C206C69AE
:102190006E653A202564202A2A2A207265636569C3
:1021A0007665645F636D643A202573202A2A2A0DC0
:1021B0000A0D0A0030782530327820000D0A000020
:1021C00010B504460420FEF73FFF0148046010BD2F
:1021D0000400002013B5044B012269460348FFF7B1
:1021E000B3F800981CBD0000FFFF0000240200208F
:1021F000FEF7EAFAFFF7AEF9FFF71AF9FFF754F91D
:10220000002202211B20FEF725FB1B20FEF718FBF6
:102210002020FFF7D5FF00240AA0FFF7EFFC642081
:10222000FEF7F1F9641CE4B2142CF5D3094D002437
:1022300064210948FDF7CCFF0748FFF75DFF2C70CC
:10224000F6E7000068656C6C6F20776F726C642E27
:102250000D0A000000000020940200204861726412
:102260004661756C745F48616E646C657200000055
:10227000000000000000010203040607080903042F
:1022800006080C10182030000000000102030400B2
:10229000B02200080000002014000000641C0008A8
:1022A000C422000814000020A4060000741C0008CA
:1022B000000000000000000080841E0000000000FC
:0422C000000000001A
:04000005080000C12E
:00000001FF
